{
  "_format": "hh-sol-artifact-1",
  "contractName": "CrowdfundingPlatform",
  "sourceName": "contracts/Crowdfunding.sol",
  "abi": [
    {
      "inputs": [],
      "stateMutability": "nonpayable",
      "type": "constructor"
    },
    {
      "anonymous": false,
      "inputs": [
        {
          "indexed": true,
          "internalType": "uint256",
          "name": "campaignId",
          "type": "uint256"
        },
        {
          "indexed": false,
          "internalType": "string",
          "name": "reason",
          "type": "string"
        }
      ],
      "name": "CampaignCancelled",
      "type": "event"
    },
    {
      "anonymous": false,
      "inputs": [
        {
          "indexed": true,
          "internalType": "uint256",
          "name": "campaignId",
          "type": "uint256"
        },
        {
          "indexed": true,
          "internalType": "address",
          "name": "creator",
          "type": "address"
        },
        {
          "indexed": false,
          "internalType": "string",
          "name": "title",
          "type": "string"
        },
        {
          "indexed": false,
          "internalType": "uint256",
          "name": "targetAmount",
          "type": "uint256"
        },
        {
          "indexed": false,
          "internalType": "uint256",
          "name": "deadline",
          "type": "uint256"
        }
      ],
      "name": "CampaignCreated",
      "type": "event"
    },
    {
      "anonymous": false,
      "inputs": [
        {
          "indexed": true,
          "internalType": "uint256",
          "name": "campaignId",
          "type": "uint256"
        },
        {
          "indexed": true,
          "internalType": "address",
          "name": "donor",
          "type": "address"
        },
        {
          "indexed": false,
          "internalType": "uint256",
          "name": "amount",
          "type": "uint256"
        },
        {
          "indexed": false,
          "internalType": "uint256",
          "name": "timestamp",
          "type": "uint256"
        }
      ],
      "name": "DonationMade",
      "type": "event"
    },
    {
      "anonymous": false,
      "inputs": [
        {
          "indexed": true,
          "internalType": "address",
          "name": "creator",
          "type": "address"
        },
        {
          "indexed": false,
          "internalType": "uint256",
          "name": "campaignId",
          "type": "uint256"
        },
        {
          "indexed": false,
          "internalType": "uint256",
          "name": "amount",
          "type": "uint256"
        }
      ],
      "name": "FundsWithdrawn",
      "type": "event"
    },
    {
      "anonymous": false,
      "inputs": [
        {
          "indexed": true,
          "internalType": "uint256",
          "name": "campaignId",
          "type": "uint256"
        },
        {
          "indexed": true,
          "internalType": "uint256",
          "name": "milestoneId",
          "type": "uint256"
        },
        {
          "indexed": false,
          "internalType": "string",
          "name": "title",
          "type": "string"
        },
        {
          "indexed": false,
          "internalType": "uint256",
          "name": "releaseAmount",
          "type": "uint256"
        }
      ],
      "name": "MilestoneCreated",
      "type": "event"
    },
    {
      "anonymous": false,
      "inputs": [
        {
          "indexed": true,
          "internalType": "uint256",
          "name": "campaignId",
          "type": "uint256"
        },
        {
          "indexed": true,
          "internalType": "uint256",
          "name": "milestoneId",
          "type": "uint256"
        },
        {
          "indexed": false,
          "internalType": "uint256",
          "name": "releaseAmount",
          "type": "uint256"
        }
      ],
      "name": "MilestoneVerified",
      "type": "event"
    },
    {
      "anonymous": false,
      "inputs": [
        {
          "indexed": true,
          "internalType": "uint256",
          "name": "campaignId",
          "type": "uint256"
        },
        {
          "indexed": true,
          "internalType": "uint256",
          "name": "milestoneId",
          "type": "uint256"
        },
        {
          "indexed": true,
          "internalType": "address",
          "name": "voter",
          "type": "address"
        },
        {
          "indexed": false,
          "internalType": "bool",
          "name": "approved",
          "type": "bool"
        }
      ],
      "name": "MilestoneVoteCast",
      "type": "event"
    },
    {
      "anonymous": false,
      "inputs": [
        {
          "indexed": true,
          "internalType": "uint256",
          "name": "campaignId",
          "type": "uint256"
        },
        {
          "indexed": true,
          "internalType": "address",
          "name": "donor",
          "type": "address"
        },
        {
          "indexed": false,
          "internalType": "uint256",
          "name": "amount",
          "type": "uint256"
        }
      ],
      "name": "RefundProcessed",
      "type": "event"
    },
    {
      "inputs": [],
      "name": "campaignCounter",
      "outputs": [
        {
          "internalType": "uint256",
          "name": "",
          "type": "uint256"
        }
      ],
      "stateMutability": "view",
      "type": "function"
    },
    {
      "inputs": [
        {
          "internalType": "uint256",
          "name": "",
          "type": "uint256"
        },
        {
          "internalType": "uint256",
          "name": "",
          "type": "uint256"
        }
      ],
      "name": "campaignDonations",
      "outputs": [
        {
          "internalType": "uint256",
          "name": "id",
          "type": "uint256"
        },
        {
          "internalType": "uint256",
          "name": "campaignId",
          "type": "uint256"
        },
        {
          "internalType": "address",
          "name": "donor",
          "type": "address"
        },
        {
          "internalType": "uint256",
          "name": "amount",
          "type": "uint256"
        },
        {
          "internalType": "uint256",
          "name": "timestamp",
          "type": "uint256"
        },
        {
          "internalType": "bool",
          "name": "refunded",
          "type": "bool"
        }
      ],
      "stateMutability": "view",
      "type": "function"
    },
    {
      "inputs": [
        {
          "internalType": "uint256",
          "name": "",
          "type": "uint256"
        },
        {
          "internalType": "uint256",
          "name": "",
          "type": "uint256"
        }
      ],
      "name": "campaignMilestones",
      "outputs": [
        {
          "internalType": "uint256",
          "name": "id",
          "type": "uint256"
        },
        {
          "internalType": "uint256",
          "name": "campaignId",
          "type": "uint256"
        },
        {
          "internalType": "string",
          "name": "title",
          "type": "string"
        },
        {
          "internalType": "string",
          "name": "description",
          "type": "string"
        },
        {
          "internalType": "uint256",
          "name": "releaseAmount",
          "type": "uint256"
        },
        {
          "internalType": "uint256",
          "name": "deadline",
          "type": "uint256"
        },
        {
          "internalType": "enum CrowdfundingPlatform.MilestoneStatus",
          "name": "status",
          "type": "uint8"
        },
        {
          "internalType": "uint256",
          "name": "votes",
          "type": "uint256"
        },
        {
          "internalType": "uint256",
          "name": "totalVoters",
          "type": "uint256"
        }
      ],
      "stateMutability": "view",
      "type": "function"
    },
    {
      "inputs": [
        {
          "internalType": "uint256",
          "name": "",
          "type": "uint256"
        }
      ],
      "name": "campaigns",
      "outputs": [
        {
          "internalType": "uint256",
          "name": "id",
          "type": "uint256"
        },
        {
          "internalType": "address",
          "name": "creator",
          "type": "address"
        },
        {
          "internalType": "string",
          "name": "title",
          "type": "string"
        },
        {
          "internalType": "string",
          "name": "description",
          "type": "string"
        },
        {
          "internalType": "uint256",
          "name": "targetAmount",
          "type": "uint256"
        },
        {
          "internalType": "uint256",
          "name": "deadline",
          "type": "uint256"
        },
        {
          "internalType": "uint256",
          "name": "amountRaised",
          "type": "uint256"
        },
        {
          "internalType": "enum CrowdfundingPlatform.CampaignStatus",
          "name": "status",
          "type": "uint8"
        },
        {
          "internalType": "string",
          "name": "ipfsHash",
          "type": "string"
        },
        {
          "internalType": "uint256",
          "name": "createdAt",
          "type": "uint256"
        }
      ],
      "stateMutability": "view",
      "type": "function"
    },
    {
      "inputs": [
        {
          "internalType": "uint256",
          "name": "_campaignId",
          "type": "uint256"
        }
      ],
      "name": "cancelCampaign",
      "outputs": [],
      "stateMutability": "nonpayable",
      "type": "function"
    },
    {
      "inputs": [
        {
          "internalType": "string",
          "name": "_title",
          "type": "string"
        },
        {
          "internalType": "string",
          "name": "_description",
          "type": "string"
        },
        {
          "internalType": "uint256",
          "name": "_targetAmount",
          "type": "uint256"
        },
        {
          "internalType": "uint256",
          "name": "_durationDays",
          "type": "uint256"
        },
        {
          "internalType": "string",
          "name": "_ipfsHash",
          "type": "string"
        }
      ],
      "name": "createCampaign",
      "outputs": [
        {
          "internalType": "uint256",
          "name": "",
          "type": "uint256"
        }
      ],
      "stateMutability": "nonpayable",
      "type": "function"
    },
    {
      "inputs": [
        {
          "internalType": "uint256",
          "name": "_campaignId",
          "type": "uint256"
        },
        {
          "internalType": "string",
          "name": "_title",
          "type": "string"
        },
        {
          "internalType": "string",
          "name": "_description",
          "type": "string"
        },
        {
          "internalType": "uint256",
          "name": "_releaseAmount",
          "type": "uint256"
        },
        {
          "internalType": "uint256",
          "name": "_durationDays",
          "type": "uint256"
        }
      ],
      "name": "createMilestone",
      "outputs": [],
      "stateMutability": "nonpayable",
      "type": "function"
    },
    {
      "inputs": [
        {
          "internalType": "address",
          "name": "",
          "type": "address"
        },
        {
          "internalType": "uint256",
          "name": "",
          "type": "uint256"
        }
      ],
      "name": "creatorCampaigns",
      "outputs": [
        {
          "internalType": "uint256",
          "name": "",
          "type": "uint256"
        }
      ],
      "stateMutability": "view",
      "type": "function"
    },
    {
      "inputs": [
        {
          "internalType": "address",
          "name": "",
          "type": "address"
        }
      ],
      "name": "creatorWithdrawals",
      "outputs": [
        {
          "internalType": "uint256",
          "name": "",
          "type": "uint256"
        }
      ],
      "stateMutability": "view",
      "type": "function"
    },
    {
      "inputs": [
        {
          "internalType": "uint256",
          "name": "_campaignId",
          "type": "uint256"
        }
      ],
      "name": "donate",
      "outputs": [],
      "stateMutability": "payable",
      "type": "function"
    },
    {
      "inputs": [],
      "name": "donationCounter",
      "outputs": [
        {
          "internalType": "uint256",
          "name": "",
          "type": "uint256"
        }
      ],
      "stateMutability": "view",
      "type": "function"
    },
    {
      "inputs": [
        {
          "internalType": "uint256",
          "name": "",
          "type": "uint256"
        },
        {
          "internalType": "address",
          "name": "",
          "type": "address"
        }
      ],
      "name": "donorContributions",
      "outputs": [
        {
          "internalType": "uint256",
          "name": "",
          "type": "uint256"
        }
      ],
      "stateMutability": "view",
      "type": "function"
    },
    {
      "inputs": [
        {
          "internalType": "uint256",
          "name": "_campaignId",
          "type": "uint256"
        }
      ],
      "name": "getCampaign",
      "outputs": [
        {
          "components": [
            {
              "internalType": "uint256",
              "name": "id",
              "type": "uint256"
            },
            {
              "internalType": "address",
              "name": "creator",
              "type": "address"
            },
            {
              "internalType": "string",
              "name": "title",
              "type": "string"
            },
            {
              "internalType": "string",
              "name": "description",
              "type": "string"
            },
            {
              "internalType": "uint256",
              "name": "targetAmount",
              "type": "uint256"
            },
            {
              "internalType": "uint256",
              "name": "deadline",
              "type": "uint256"
            },
            {
              "internalType": "uint256",
              "name": "amountRaised",
              "type": "uint256"
            },
            {
              "internalType": "enum CrowdfundingPlatform.CampaignStatus",
              "name": "status",
              "type": "uint8"
            },
            {
              "internalType": "string",
              "name": "ipfsHash",
              "type": "string"
            },
            {
              "internalType": "uint256",
              "name": "createdAt",
              "type": "uint256"
            }
          ],
          "internalType": "struct CrowdfundingPlatform.Campaign",
          "name": "",
          "type": "tuple"
        }
      ],
      "stateMutability": "view",
      "type": "function"
    },
    {
      "inputs": [
        {
          "internalType": "uint256",
          "name": "_campaignId",
          "type": "uint256"
        }
      ],
      "name": "getCampaignDonations",
      "outputs": [
        {
          "components": [
            {
              "internalType": "uint256",
              "name": "id",
              "type": "uint256"
            },
            {
              "internalType": "uint256",
              "name": "campaignId",
              "type": "uint256"
            },
            {
              "internalType": "address",
              "name": "donor",
              "type": "address"
            },
            {
              "internalType": "uint256",
              "name": "amount",
              "type": "uint256"
            },
            {
              "internalType": "uint256",
              "name": "timestamp",
              "type": "uint256"
            },
            {
              "internalType": "bool",
              "name": "refunded",
              "type": "bool"
            }
          ],
          "internalType": "struct CrowdfundingPlatform.Donation[]",
          "name": "",
          "type": "tuple[]"
        }
      ],
      "stateMutability": "view",
      "type": "function"
    },
    {
      "inputs": [
        {
          "internalType": "uint256",
          "name": "_campaignId",
          "type": "uint256"
        }
      ],
      "name": "getCampaignMilestones",
      "outputs": [
        {
          "components": [
            {
              "internalType": "uint256",
              "name": "id",
              "type": "uint256"
            },
            {
              "internalType": "uint256",
              "name": "campaignId",
              "type": "uint256"
            },
            {
              "internalType": "string",
              "name": "title",
              "type": "string"
            },
            {
              "internalType": "string",
              "name": "description",
              "type": "string"
            },
            {
              "internalType": "uint256",
              "name": "releaseAmount",
              "type": "uint256"
            },
            {
              "internalType": "uint256",
              "name": "deadline",
              "type": "uint256"
            },
            {
              "internalType": "enum CrowdfundingPlatform.MilestoneStatus",
              "name": "status",
              "type": "uint8"
            },
            {
              "internalType": "uint256",
              "name": "votes",
              "type": "uint256"
            },
            {
              "internalType": "uint256",
              "name": "totalVoters",
              "type": "uint256"
            }
          ],
          "internalType": "struct CrowdfundingPlatform.Milestone[]",
          "name": "",
          "type": "tuple[]"
        }
      ],
      "stateMutability": "view",
      "type": "function"
    },
    {
      "inputs": [
        {
          "internalType": "address",
          "name": "_creator",
          "type": "address"
        }
      ],
      "name": "getCreatorCampaigns",
      "outputs": [
        {
          "internalType": "uint256[]",
          "name": "",
          "type": "uint256[]"
        }
      ],
      "stateMutability": "view",
      "type": "function"
    },
    {
      "inputs": [
        {
          "internalType": "uint256",
          "name": "",
          "type": "uint256"
        },
        {
          "internalType": "uint256",
          "name": "",
          "type": "uint256"
        },
        {
          "internalType": "address",
          "name": "",
          "type": "address"
        }
      ],
      "name": "milestoneVotes",
      "outputs": [
        {
          "internalType": "bool",
          "name": "",
          "type": "bool"
        }
      ],
      "stateMutability": "view",
      "type": "function"
    },
    {
      "inputs": [],
      "name": "platformFeePercentage",
      "outputs": [
        {
          "internalType": "uint256",
          "name": "",
          "type": "uint256"
        }
      ],
      "stateMutability": "view",
      "type": "function"
    },
    {
      "inputs": [],
      "name": "platformFeesCollected",
      "outputs": [
        {
          "internalType": "uint256",
          "name": "",
          "type": "uint256"
        }
      ],
      "stateMutability": "view",
      "type": "function"
    },
    {
      "inputs": [],
      "name": "platformOwner",
      "outputs": [
        {
          "internalType": "address",
          "name": "",
          "type": "address"
        }
      ],
      "stateMutability": "view",
      "type": "function"
    },
    {
      "inputs": [
        {
          "internalType": "uint256",
          "name": "_campaignId",
          "type": "uint256"
        }
      ],
      "name": "refundDonors",
      "outputs": [],
      "stateMutability": "nonpayable",
      "type": "function"
    },
    {
      "inputs": [
        {
          "internalType": "uint256",
          "name": "_campaignId",
          "type": "uint256"
        },
        {
          "internalType": "uint256",
          "name": "_milestoneId",
          "type": "uint256"
        },
        {
          "internalType": "bool",
          "name": "_approve",
          "type": "bool"
        }
      ],
      "name": "voteMilestone",
      "outputs": [],
      "stateMutability": "nonpayable",
      "type": "function"
    },
    {
      "inputs": [
        {
          "internalType": "uint256",
          "name": "_campaignId",
          "type": "uint256"
        },
        {
          "internalType": "uint256",
          "name": "_milestoneId",
          "type": "uint256"
        }
      ],
      "name": "withdrawMilestoneFunds",
      "outputs": [],
      "stateMutability": "nonpayable",
      "type": "function"
    },
    {
      "inputs": [],
      "name": "withdrawPlatformFees",
      "outputs": [],
      "stateMutability": "nonpayable",
      "type": "function"
    }
  ],
  "bytecode": "0x6080604052600080556000600155600280556000600b5534801561002257600080fd5b50600a80546001600160a01b03191633179055612f30806100446000396000f3fe60806040526004361061014b5760003560e01c80638dc7b615116100b6578063d4e3dd6f1161006f578063d4e3dd6f1461044c578063ddc8af611461046c578063e653dabd1461048c578063f14faf6f146104dd578063f91e4b29146104f0578063fca604d71461051d57600080fd5b80638dc7b615146103ab578063918cb241146103cb578063b36ffca6146103eb578063bfe2661214610401578063cdd78cfc14610421578063d0b7830b1461043757600080fd5b80634df8ccb1116101085780634df8ccb11461026f5780635167642f146102a75780635598f8cc146102d4578063608bdc081461030157806370879ff71461032157806376edca3d1461037e57600080fd5b8063141961bc146101505780633178492a1461018f57806338d187dd146101c45780633e2f2915146101e857806343a3191d1461022057806345598b4a1461024d575b600080fd5b34801561015c57600080fd5b5061017061016b366004612569565b610533565b6040516101869a9998979695949392919061260c565b60405180910390f35b34801561019b57600080fd5b506101af6101aa36600461269a565b61072a565b604051610186999897969594939291906126bc565b3480156101d057600080fd5b506101da60015481565b604051908152602001610186565b3480156101f457600080fd5b506101da610203366004612745565b600660209081526000928352604080842090915290825290205481565b34801561022c57600080fd5b506101da61023b366004612771565b60096020526000908152604090205481565b34801561025957600080fd5b5061026d610268366004612569565b6108a9565b005b34801561027b57600080fd5b50600a5461028f906001600160a01b031681565b6040516001600160a01b039091168152602001610186565b3480156102b357600080fd5b506102c76102c2366004612569565b610c24565b6040516101869190612793565b3480156102e057600080fd5b506102f46102ef366004612569565b610d01565b6040516101869190612816565b34801561030d57600080fd5b5061026d61031c366004612569565b610f8c565b34801561032d57600080fd5b5061034161033c36600461269a565b6112e8565b6040805196875260208701959095526001600160a01b039093169385019390935260608401526080830191909152151560a082015260c001610186565b34801561038a57600080fd5b5061039e610399366004612771565b611348565b60405161018691906128df565b3480156103b757600080fd5b5061026d6103c63660046129c6565b6113b4565b3480156103d757600080fd5b5061026d6103e6366004612a45565b6116a8565b3480156103f757600080fd5b506101da600b5481565b34801561040d57600080fd5b5061026d61041c36600461269a565b6119b9565b34801561042d57600080fd5b506101da60025481565b34801561044357600080fd5b5061026d611c70565b34801561045857600080fd5b506101da610467366004612a83565b611d7b565b34801561047857600080fd5b506101da610487366004612b1f565b611ff2565b34801561049857600080fd5b506104cd6104a7366004612b49565b600760209081526000938452604080852082529284528284209052825290205460ff1681565b6040519015158152602001610186565b61026d6104eb366004612569565b612023565b3480156104fc57600080fd5b5061051061050b366004612569565b6122dc565b6040516101869190612b7e565b34801561052957600080fd5b506101da60005481565b60036020526000908152604090208054600182015460028301805492936001600160a01b039092169261056590612c58565b80601f016020809104026020016040519081016040528092919081815260200182805461059190612c58565b80156105de5780601f106105b3576101008083540402835291602001916105de565b820191906000526020600020905b8154815290600101906020018083116105c157829003601f168201915b5050505050908060030180546105f390612c58565b80601f016020809104026020016040519081016040528092919081815260200182805461061f90612c58565b801561066c5780601f106106415761010080835404028352916020019161066c565b820191906000526020600020905b81548152906001019060200180831161064f57829003601f168201915b50505060048401546005850154600686015460078701546008880180549798949793965091945060ff1692916106a190612c58565b80601f01602080910402602001604051908101604052809291908181526020018280546106cd90612c58565b801561071a5780601f106106ef5761010080835404028352916020019161071a565b820191906000526020600020905b8154815290600101906020018083116106fd57829003601f168201915b505050505090806009015490508a565b6004602052816000526040600020818154811061074657600080fd5b90600052602060002090600902016000915091505080600001549080600101549080600201805461077690612c58565b80601f01602080910402602001604051908101604052809291908181526020018280546107a290612c58565b80156107ef5780601f106107c4576101008083540402835291602001916107ef565b820191906000526020600020905b8154815290600101906020018083116107d257829003601f168201915b50505050509080600301805461080490612c58565b80601f016020809104026020016040519081016040528092919081815260200182805461083090612c58565b801561087d5780601f106108525761010080835404028352916020019161087d565b820191906000526020600020905b81548152906001019060200180831161086057829003601f168201915b50505060048401546005850154600686015460078701546008909701549596929591945060ff16925089565b806000811180156108bc57506000548111155b6108e15760405162461bcd60e51b81526004016108d890612c8c565b60405180910390fd5b60008281526003602052604090206001015482906001600160a01b0316331461091c5760405162461bcd60e51b81526004016108d890612cc3565b60008381526003602052604090206002600782015460ff166003811115610945576109456125c8565b036109925760405162461bcd60e51b815260206004820152601a60248201527f43616d706169676e20616c72656164792063616e63656c6c656400000000000060448201526064016108d8565b60078101805460ff191660021790556000848152600560205260408120905b8154811015610bb4578181815481106109cc576109cc612cfa565b600091825260209091206005600690920201015460ff16610ba25760018282815481106109fb576109fb612cfa565b906000526020600020906006020160050160006101000a81548160ff0219169083151502179055506000828281548110610a3757610a37612cfa565b600091825260209091206002600690920201015483546001600160a01b0390911690849084908110610a6b57610a6b612cfa565b90600052602060002090600602016003015460405160006040518083038185875af1925050503d8060008114610abd576040519150601f19603f3d011682016040523d82523d6000602084013e610ac2565b606091505b5050905080610b035760405162461bcd60e51b815260206004820152600d60248201526c1499599d5b990819985a5b1959609a1b60448201526064016108d8565b828281548110610b1557610b15612cfa565b906000526020600020906006020160020160009054906101000a90046001600160a01b03166001600160a01b0316877f79ff6a60b3e21b3630b207e2a7b0b50b69b197d3d7ca776108ed2afb8fbac8dc858581548110610b7757610b77612cfa565b906000526020600020906006020160030154604051610b9891815260200190565b60405180910390a3505b80610bac81612d26565b9150506109b1565b50847ff021e62333cdfbbd34d095d4f9914d4a723cc108f866fba75fc4581b1a34fa1f604051610c15906020808252601d908201527f43616d706169676e2063616e63656c6c65642062792063726561746f72000000604082015260600190565b60405180910390a25050505050565b606081600081118015610c3957506000548111155b610c555760405162461bcd60e51b81526004016108d890612c8c565b600083815260056020908152604080832080548251818502810185019093528083529193909284015b82821015610cf45760008481526020908190206040805160c08101825260068602909201805483526001808201548486015260028201546001600160a01b03169284019290925260038101546060840152600481015460808401526005015460ff16151560a08301529083529092019101610c7e565b5050505091505b50919050565b610d096124fc565b81600081118015610d1c57506000548111155b610d385760405162461bcd60e51b81526004016108d890612c8c565b6000838152600360209081526040918290208251610140810184528154815260018201546001600160a01b0316928101929092526002810180549293919291840191610d8390612c58565b80601f0160208091040260200160405190810160405280929190818152602001828054610daf90612c58565b8015610dfc5780601f10610dd157610100808354040283529160200191610dfc565b820191906000526020600020905b815481529060010190602001808311610ddf57829003601f168201915b50505050508152602001600382018054610e1590612c58565b80601f0160208091040260200160405190810160405280929190818152602001828054610e4190612c58565b8015610e8e5780601f10610e6357610100808354040283529160200191610e8e565b820191906000526020600020905b815481529060010190602001808311610e7157829003601f168201915b5050509183525050600482015460208201526005820154604082015260068201546060820152600782015460809091019060ff166003811115610ed357610ed36125c8565b6003811115610ee457610ee46125c8565b8152602001600882018054610ef890612c58565b80601f0160208091040260200160405190810160405280929190818152602001828054610f2490612c58565b8015610f715780601f10610f4657610100808354040283529160200191610f71565b820191906000526020600020905b815481529060010190602001808311610f5457829003601f168201915b50505050508152602001600982015481525050915050919050565b80600081118015610f9f57506000548111155b610fbb5760405162461bcd60e51b81526004016108d890612c8c565b6000828152600360205260409020600581015442116110145760405162461bcd60e51b815260206004820152601560248201527443616d706169676e207374696c6c2061637469766560581b60448201526064016108d8565b6000600782015460ff16600381111561102f5761102f6125c8565b146110725760405162461bcd60e51b815260206004820152601360248201527243616d706169676e206e6f742061637469766560681b60448201526064016108d8565b80600401548160060154106110bf5760405162461bcd60e51b815260206004820152601360248201527210d85b5c185a59db881dd85cc8199d5b991959606a1b60448201526064016108d8565b60078101805460ff191660021790556000838152600560205260408120905b81548110156112e1578181815481106110f9576110f9612cfa565b600091825260209091206005600690920201015460ff166112cf57600182828154811061112857611128612cfa565b906000526020600020906006020160050160006101000a81548160ff021916908315150217905550600082828154811061116457611164612cfa565b600091825260209091206002600690920201015483546001600160a01b039091169084908490811061119857611198612cfa565b90600052602060002090600602016003015460405160006040518083038185875af1925050503d80600081146111ea576040519150601f19603f3d011682016040523d82523d6000602084013e6111ef565b606091505b50509050806112305760405162461bcd60e51b815260206004820152600d60248201526c1499599d5b990819985a5b1959609a1b60448201526064016108d8565b82828154811061124257611242612cfa565b906000526020600020906006020160020160009054906101000a90046001600160a01b03166001600160a01b0316867f79ff6a60b3e21b3630b207e2a7b0b50b69b197d3d7ca776108ed2afb8fbac8dc8585815481106112a4576112a4612cfa565b9060005260206000209060060201600301546040516112c591815260200190565b60405180910390a3505b806112d981612d26565b9150506110de565b5050505050565b6005602052816000526040600020818154811061130457600080fd5b60009182526020909120600690910201805460018201546002830154600384015460048501546005909501549396509194506001600160a01b031692909160ff1686565b6001600160a01b0381166000908152600860209081526040918290208054835181840281018401909452808452606093928301828280156113a857602002820191906000526020600020905b815481526020019060010190808311611394575b50505050509050919050565b846000811180156113c757506000548111155b6113e35760405162461bcd60e51b81526004016108d890612c8c565b60008681526003602052604090206001015486906001600160a01b0316331461141e5760405162461bcd60e51b81526004016108d890612cc3565b6000841161147c5760405162461bcd60e51b815260206004820152602560248201527f52656c6561736520616d6f756e74206d75737420626520677265617465722074604482015264068616e20360dc1b60648201526084016108d8565b600083116114cc5760405162461bcd60e51b815260206004820152601f60248201527f4475726174696f6e206d7573742062652067726561746572207468616e20300060448201526064016108d8565b600087815260036020819052604090912090600782015460ff1660038111156114f7576114f76125c8565b146115445760405162461bcd60e51b815260206004820152601760248201527f43616d706169676e206d7573742062652066756e64656400000000000000000060448201526064016108d8565b604080516101208101825260008a81526004602090815283822054835282018b9052918101899052606081018890526080810187905260a0810161158b8762015180612d3f565b6115959042612d5c565b8152602001600081526000602080830182905260409283018290528c825260048152828220805460018181018355918452928290208551600990940201928355908401519082015590820151919250829160028201906115f59082612dbe565b506060820151600382019061160a9082612dbe565b506080820151600482015560a0820151600582015560c082015160068201805460ff19166001836003811115611642576116426125c8565b021790555060e08201518160070155610100820151816008015550508060000151897f3d198c5d9c28f50bf234c9c1a9a84f7ed3a20d152833a06c844a8e897261abd28a89604051611695929190612e7e565b60405180910390a3505050505050505050565b826000811180156116bb57506000548111155b6116d75760405162461bcd60e51b81526004016108d890612c8c565b600084815260046020526040902054831061172f5760405162461bcd60e51b8152602060048201526018602482015277135a5b195cdd1bdb9948191bd95cc81b9bdd08195e1a5cdd60421b60448201526064016108d8565b60008481526006602090815260408083203384529091529020546117955760405162461bcd60e51b815260206004820152601760248201527f4d757374206265206120646f6e6f7220746f20766f746500000000000000000060448201526064016108d8565b6000848152600760209081526040808320868452825280832033845290915290205460ff16156117f75760405162461bcd60e51b815260206004820152600d60248201526c105b1c9958591e481d9bdd1959609a1b60448201526064016108d8565b600084815260046020526040812080548590811061181757611817612cfa565b6000918252602082206009909102019150600682015460ff166003811115611841576118416125c8565b1461188e5760405162461bcd60e51b815260206004820152601860248201527f4d696c6573746f6e65206973206e6f742070656e64696e67000000000000000060448201526064016108d8565b600085815260076020908152604080832087845282528083203384529091528120805460ff19166001179055600882018054916118ca83612d26565b919050555082156118ed576007810180549060006118e783612d26565b91905055505b60008581526005602052604090205460649061190a906050612d3f565b6119149190612ea0565b8160070154111561196b5760068101805460ff191660021790556004810154604051908152849086907f95746eb2a2ce606b86dd03c51ffd927b7a5d5511c007d15adc040ae171dfad939060200160405180910390a35b336001600160a01b031684867fead14ef04fe6cafe2d056e9a9e100191e9c8e91a3202232d8b48722f029e7aef866040516119aa911515815260200190565b60405180910390a45050505050565b816000811180156119cc57506000548111155b6119e85760405162461bcd60e51b81526004016108d890612c8c565b60008381526003602052604090206001015483906001600160a01b03163314611a235760405162461bcd60e51b81526004016108d890612cc3565b6000848152600460205260409020548310611a7b5760405162461bcd60e51b8152602060048201526018602482015277135a5b195cdd1bdb9948191bd95cc81b9bdd08195e1a5cdd60421b60448201526064016108d8565b6000848152600460205260408120805485908110611a9b57611a9b612cfa565b6000918252602090912060099091020190506002600682015460ff166003811115611ac857611ac86125c8565b14611b0e5760405162461bcd60e51b8152602060048201526016602482015275135a5b195cdd1bdb99481b9bdd081d995c9a599a595960521b60448201526064016108d8565b60008581526003602052604081206002546004840154919291606491611b3391612d3f565b611b3d9190612ea0565b90506000818460040154611b519190612ec2565b60068501805460ff19166001179055600b80549192508391600090611b77908490612d5c565b90915550503360009081526009602052604081208054839290611b9b908490612d5c565b9091555050604051600090339083908381818185875af1925050503d8060008114611be2576040519150601f19603f3d011682016040523d82523d6000602084013e611be7565b606091505b5050905080611c2a5760405162461bcd60e51b815260206004820152600f60248201526e151c985b9cd9995c8819985a5b1959608a1b60448201526064016108d8565b604080518a81526020810184905233917ffbc3a599b784fe88772fc5abcc07223f64ca0b13acc341f4fb1e46bef0510eb4910160405180910390a2505050505050505050565b600a546001600160a01b03163314611cd45760405162461bcd60e51b815260206004820152602160248201527f4f6e6c7920706c6174666f726d206f776e65722063616e2063616c6c207468696044820152607360f81b60648201526084016108d8565b600b8054600091829055600a546040519192916001600160a01b039091169083908381818185875af1925050503d8060008114611d2d576040519150601f19603f3d011682016040523d82523d6000602084013e611d32565b606091505b5050905080611d775760405162461bcd60e51b815260206004820152601160248201527015da5d1a191c985dd85b0819985a5b1959607a1b60448201526064016108d8565b5050565b6000808411611dd85760405162461bcd60e51b8152602060048201526024808201527f54617267657420616d6f756e74206d75737420626520677265617465722074686044820152630616e20360e41b60648201526084016108d8565b60008311611e285760405162461bcd60e51b815260206004820152601f60248201527f4475726174696f6e206d7573742062652067726561746572207468616e20300060448201526064016108d8565b600080549080611e3783612d26565b90915550506000805490611e4e8562015180612d3f565b611e589042612d5c565b9050604051806101400160405280838152602001336001600160a01b031681526020018981526020018881526020018781526020018281526020016000815260200160006003811115611ead57611ead6125c8565b815260208082018790524260409283015260008581526003825282902083518155908301516001820180546001600160a01b0319166001600160a01b03909216919091179055908201516002820190611f069082612dbe565b5060608201516003820190611f1b9082612dbe565b506080820151600482015560a0820151600582015560c0820151600682015560e082015160078201805460ff19166001836003811115611f5d57611f5d6125c8565b02179055506101008201516008820190611f779082612dbe565b506101209190910151600990910155336000818152600860209081526040808320805460018101825590845291909220018490555183907fdc26653af5b99b2da33e2ad69ee6600d9aeccc82b034501db4338309615ca23890611fdf908c908b908790612ed5565b60405180910390a3509695505050505050565b6008602052816000526040600020818154811061200e57600080fd5b90600052602060002001600091509150505481565b8060008111801561203657506000548111155b6120525760405162461bcd60e51b81526004016108d890612c8c565b600034116120b15760405162461bcd60e51b815260206004820152602660248201527f446f6e6174696f6e20616d6f756e74206d75737420626520677265617465722060448201526507468616e20360d41b60648201526084016108d8565b600082815260036020526040812090600782015460ff1660038111156120d9576120d96125c8565b1461211f5760405162461bcd60e51b815260206004820152601660248201527543616d706169676e206973206e6f742061637469766560501b60448201526064016108d8565b80600501544211156121735760405162461bcd60e51b815260206004820152601c60248201527f43616d706169676e20646561646c696e6520686173207061737365640000000060448201526064016108d8565b6001805490600061218383612d26565b91905055503481600601600082825461219c9190612d5c565b90915550506000838152600660209081526040808320338452909152812080543492906121ca908490612d5c565b90915550506000838152600560208181526040808420815160c0810183526001805482528185018a8152339483019485523460608401908152426080850190815260a085018a815286548086018855968b52979099209351600695860290940193845590519183019190915592516002820180546001600160a01b0319166001600160a01b0390921691909117905591516003830155935160048083019190915591519201805460ff191692151592909217909155820154908201541061229b5760078101805460ff191660031790555b60408051348152426020820152339185917f8daa46fa469e04bd312abe18b38efc6deb94c058ad9ed97ae8787e2a2169a86e910160405180910390a3505050565b6060816000811180156122f157506000548111155b61230d5760405162461bcd60e51b81526004016108d890612c8c565b600083815260046020908152604080832080548251818502810185019093528083529193909284015b82821015610cf4578382906000526020600020906009020160405180610120016040529081600082015481526020016001820154815260200160028201805461237e90612c58565b80601f01602080910402602001604051908101604052809291908181526020018280546123aa90612c58565b80156123f75780601f106123cc576101008083540402835291602001916123f7565b820191906000526020600020905b8154815290600101906020018083116123da57829003601f168201915b5050505050815260200160038201805461241090612c58565b80601f016020809104026020016040519081016040528092919081815260200182805461243c90612c58565b80156124895780601f1061245e57610100808354040283529160200191612489565b820191906000526020600020905b81548152906001019060200180831161246c57829003601f168201915b50505091835250506004820154602082015260058201546040820152600682015460609091019060ff1660038111156124c4576124c46125c8565b60038111156124d5576124d56125c8565b81526020016007820154815260200160088201548152505081526020019060010190612336565b6040518061014001604052806000815260200160006001600160a01b03168152602001606081526020016060815260200160008152602001600081526020016000815260200160006003811115612555576125556125c8565b815260200160608152602001600081525090565b60006020828403121561257b57600080fd5b5035919050565b6000815180845260005b818110156125a85760208185018101518683018201520161258c565b506000602082860101526020601f19601f83011685010191505092915050565b634e487b7160e01b600052602160045260246000fd5b600481106125fc57634e487b7160e01b600052602160045260246000fd5b50565b612608816125de565b9052565b8a81526001600160a01b038a166020820152610140604082018190526000906126378382018c612582565b9050828103606084015261264b818b612582565b90508860808401528760a08401528660c0840152612668866125de565b8560e08401528281036101008401526126818186612582565b915050826101208301529b9a5050505050505050505050565b600080604083850312156126ad57600080fd5b50508035926020909101359150565b60006101208b83528a60208401528060408401526126dc8184018b612582565b905082810360608401526126f0818a612582565b9150508660808301528560a0830152612708856125de565b8460c08301528360e0830152826101008301529a9950505050505050505050565b80356001600160a01b038116811461274057600080fd5b919050565b6000806040838503121561275857600080fd5b8235915061276860208401612729565b90509250929050565b60006020828403121561278357600080fd5b61278c82612729565b9392505050565b602080825282518282018190526000919060409081850190868401855b82811015612809578151805185528681015187860152858101516001600160a01b031686860152606080820151908601526080808201519086015260a09081015115159085015260c090930192908501906001016127b0565b5091979650505050505050565b60208152815160208201526000602083015161283d60408401826001600160a01b03169052565b50604083015161014080606085015261285a610160850183612582565b91506060850151601f19808685030160808701526128788483612582565b9350608087015160a087015260a087015160c087015260c087015160e087015260e087015191506101006128ae818801846125ff565b808801519250506101208187860301818801526128cb8584612582565b970151959092019490945250929392505050565b6020808252825182820181905260009190848201906040850190845b81811015612917578351835292840192918401916001016128fb565b50909695505050505050565b634e487b7160e01b600052604160045260246000fd5b600082601f83011261294a57600080fd5b813567ffffffffffffffff8082111561296557612965612923565b604051601f8301601f19908116603f0116810190828211818310171561298d5761298d612923565b816040528381528660208588010111156129a657600080fd5b836020870160208301376000602085830101528094505050505092915050565b600080600080600060a086880312156129de57600080fd5b85359450602086013567ffffffffffffffff808211156129fd57600080fd5b612a0989838a01612939565b95506040880135915080821115612a1f57600080fd5b50612a2c88828901612939565b9598949750949560608101359550608001359392505050565b600080600060608486031215612a5a57600080fd5b833592506020840135915060408401358015158114612a7857600080fd5b809150509250925092565b600080600080600060a08688031215612a9b57600080fd5b853567ffffffffffffffff80821115612ab357600080fd5b612abf89838a01612939565b96506020880135915080821115612ad557600080fd5b612ae189838a01612939565b955060408801359450606088013593506080880135915080821115612b0557600080fd5b50612b1288828901612939565b9150509295509295909350565b60008060408385031215612b3257600080fd5b612b3b83612729565b946020939093013593505050565b600080600060608486031215612b5e57600080fd5b8335925060208401359150612b7560408501612729565b90509250925092565b60006020808301818452808551808352604092508286019150828160051b87010184880160005b83811015612c4a57603f198984030185528151610120815185528882015189860152878201518189870152612bdc82870182612582565b91505060608083015186830382880152612bf68382612582565b92505050608080830151818701525060a080830151818701525060c080830151612c22828801826125ff565b505060e082810151908601526101009182015191909401529386019390860190600101612ba5565b509098975050505050505050565b600181811c90821680612c6c57607f821691505b602082108103610cfb57634e487b7160e01b600052602260045260246000fd5b60208082526017908201527f43616d706169676e20646f6573206e6f74206578697374000000000000000000604082015260600190565b6020808252601a908201527f4f6e6c792063726561746f722063616e2063616c6c2074686973000000000000604082015260600190565b634e487b7160e01b600052603260045260246000fd5b634e487b7160e01b600052601160045260246000fd5b600060018201612d3857612d38612d10565b5060010190565b8082028115828204841417612d5657612d56612d10565b92915050565b80820180821115612d5657612d56612d10565b601f821115612db957600081815260208120601f850160051c81016020861015612d965750805b601f850160051c820191505b81811015612db557828155600101612da2565b5050505b505050565b815167ffffffffffffffff811115612dd857612dd8612923565b612dec81612de68454612c58565b84612d6f565b602080601f831160018114612e215760008415612e095750858301515b600019600386901b1c1916600185901b178555612db5565b600085815260208120601f198616915b82811015612e5057888601518255948401946001909101908401612e31565b5085821015612e6e5787850151600019600388901b60f8161c191681555b5050505050600190811b01905550565b604081526000612e916040830185612582565b90508260208301529392505050565b600082612ebd57634e487b7160e01b600052601260045260246000fd5b500490565b81810381811115612d5657612d56612d10565b606081526000612ee86060830186612582565b6020830194909452506040015291905056fea2646970667358221220832f928ae9288d4d3ce62c0859d4a28b84a64596a4050e7d60faed3ae61db1cc64736f6c63430008130033",
  "linkReferences": {},
  "deployedLinkReferences": {}
}